:100000000C9412010C9459010C9459010C9459014F
:100010000C9459010C9459010C9459010C945901F8
:100020000C9459010C9459010C94821C0C94561D8B
:100030000C94AE170C9459010C9459010C9459016D
:100040000C9459010C9459010C9459010C945901C8
:100050000C9459010C9405180C9459010C945901F5
:100060000C9459010C9459010C9459010C945901A8
:100070000C9459010C9459010C9459010C94590198
:100080000C9459010C9459010C9459010C94590188
:100090000C9459010C9459010C9459010C94590178
:1000A0000C9459010C9459010C9459012900B20087
:1000B0005400550056002A005F00600061005700A0
:1000C00026025C005D005E005700270259005A00BE
:1000D0005B0058001C0062006200630058002403AB
:1000E0006D0069006E0069005F00740065006E00BD
:1000F0005F006B00650079005F0070006C007500A8
:100100007300000012036D0069006E006900620058
:100110006F006900730000000403090409023B003A
:10012000020100A0FA0904000001030101000921F5
:10013000110100012240000705810308000A09049B
:1001400001000103000000092111010001227B00D0
:100150000705820320000A1201000200000008EDDA
:10016000FE000001000102000105010902A1018554
:10017000020901A1000509190129081500250195A9
:1001800008750181020501093009311581257F9526
:10019000027508810609381581257F95017508814A
:1001A00006050C0A38021581257F95017508810620
:1001B000C0C005010980A101850319012AB70015F6
:1001C0000126B700950175108100C0050C0901A139
:1001D00001850419012AA002150126A002950175C6
:1001E000108100C005010906A101050719E029E7F2
:1001F0001500250195087501810295017508810199
:100200000507190029FF150026FF009506750881CE
:1002100000050819012905950575019102950175DB
:10022000039101C011241FBECFEFDAE0DEBFCDBFC6
:1002300004B603FE27C08091560290915702A09108
:100240005802B09159028730904BA740B04BD1F47F
:1002500010925602109257021092580210925902B0
:1002600014BE84B7877F84BF0FB6F894A895809199
:100270006000886180936000109260000FBEE0E033
:10028000F8E3099511E0A0E0B1E0E6E5FFE302C084
:1002900005900D92A639B107D9F722E0A6E9B1E0A1
:1002A00001C01D92A635B207E1F70E9497110C9488
:1002B000851F0C940000CF93DF93D62F0E94591511
:1002C000C82F882339F0DD2349F087E292E00E94AD
:1002D000D301CD2F8C2FDF91CF91089586E292E04C
:1002E0000E94D301F7CF9C013A9521153F4150F56B
:1002F000FC01EE27F170BC0166277270AC01442747
:1003000054709C012227387094FF0EC080E1EF2BBF
:1003100009F480E0672B09F08062452B09F08064C6
:10032000232B89F08068089581E0EF2B09F480E0A9
:10033000672B09F08260452B09F08460232B19F0AC
:100340008860089580E00895CF93DF93EC010E94C8
:1003500073019E01205E31092830310510F020978D
:1003600039F40E94FF038C2FDF91CF910C94F80297
:100370000E947606F8CFCF93DF93EC010E948A03A8
:10038000CE010E9473019E01205E310928303105A3
:1003900010F0CD2B21F4DF91CF910C940604DF9166
:1003A000CF910C947D06CF93DF93EC010E94A401C2
:1003B000CE01DF91CF910C94BB0181E0089581E0E3
:1003C00008950C94DF0108950C94E3011F93CF93DB
:1003D000DF9300D000D00F92CDB7DEB749835A83A8
:1003E0006B833091980189819A8131111DC06623F8
:1003F000B9F02223A9F00E944808182F682F89819C
:100400009A810E94F10769817A81812F0F900F9064
:100410000F900F900F90DF91CF911F910C941C0FB4
:100420000E941F08182FEFCF0E94480869817A8127
:10043000EDCFFC01262F408151816281738184813F
:100440000C94E60181E00895CF93DF93EC0160E026
:100450000E941902BE01DF91CF910C94E4010E9429
:1004600028100E94AC020C944D100C94501080E0A7
:100470000C94AD02089508950E949A060E943B02D2
:100480002FEF84E39CE0215080409040E1F700C0D2
:1004900000000C9429180F931F93CF93DF938C01C6
:1004A00061E00E941902EC01B8010E94E101882379
:1004B000A9F1B801CE010E944E16882379F1B80146
:1004C000CE010E942F14882349F1B801CE010E9469
:1004D000B815882319F1F8018281882361F0CB35A2
:1004E000FDE5DF0721F170F4C115ECE5DE07A1F0B1
:1004F000CF3DDC45C9F0C801DF91CF911F910F912D
:100500000C94DD01CC358DE5D807A1F0CD35DD4566
:1005100091F70E94700CEFCF0E943C0280E0DF91C7
:10052000CF911F910F9108950E942A0DF7CF0E943D
:10053000790CE1CF0E947C0CDECF0C943A020E9431
:10054000AA160E94AD020C949D0208950C94A50277
:1005500081E008950C94A8020895CF93C82F0E94BB
:10056000A6028C2FCF910C94AA02CF93DF93CDB724
:10057000DEB72B970FB6F894DEBF0FBECDBF4F830B
:10058000588769877A878B8761110E94CB0B1E82FF
:100590001D8285E0FE013796DE01119601900D92D5
:1005A0008A95E1F78C819D81892B89F449815A8153
:1005B0006B817C818D819E810E94EC0A2B960FB607
:1005C000F894DEBF0FBECDBFDF91CF910895898132
:1005D0009A8189238F3F51F3CE0101960E94220216
:1005E0008111E4CFEBCFFC01808191810C948A08CA
:1005F000CF93C82F882309F48BC08238C1F40E949E
:10060000AA1681FD85C089E30E94860B0E94EE0B2D
:100610002FEF81EE94E0215080409040E1F700C040
:10062000000089E30E948D0BCF910C94EE0B833870
:10063000A1F40E94AA1680FD6BC083E50E94860B80
:100640000E94EE0B2FEF81EE94E02150804090400D
:10065000E1F700C0000083E5E5CF8438A1F40E94F3
:10066000AA1682FD55C087E40E94860B0E94EE0BFD
:100670002FEF81EE94E0215080409040E1F700C0E0
:10068000000087E4CFCF8CEF8C0F813A90F46C2F71
:1006900080910201909103010E940D17882329F097
:1006A0008C2F0E948D0B0E94EE0B8C2F0E94860BCC
:1006B000BBCF80E28C0F883048F4C77081E001C066
:1006C000880FCA95EAF70E94AE0BAECFEBE5EC0FB0
:1006D000E33040F4F0E0E95BFE4F808190E0CF91A1
:1006E0000C94CF16E8E5EC0FE73150F4F0E0EE0F94
:1006F000FF1FE75EFE4F80819181CF910C94E5163C
:10070000CD3E30F08C2F0E942712CF910C94FA121C
:10071000CF910895882309F452C0823871F40E9461
:10072000AA1681FF4CC089E30E94860B0E94EE0B43
:1007300089E30E948D0B0C94EE0B833859F40E94D0
:10074000AA1680FF3CC083E50E94860B0E94EE0B38
:1007500083E5EFCF843859F40E94AA1682FF2FC098
:1007600087E40E94860B0E94EE0B87E4E2CF9CEFA9
:10077000980F913AF0F290E2980F983050F4877009
:1007800091E001C0990F8A95EAF7892F0E94B40B76
:10079000D2CF9BE5980F933020F490E080E00C944A
:1007A000CF1698E5980F973120F490E080E00C94F4
:1007B000E5168D3E20F00E9481120C94FA120895E5
:1007C0001F93CF93DF93182FEB010E94F80220971D
:1007D00031F4812FDF91CF911F910C948A038FE91F
:1007E0009FE00197F1F700C000002197F0CF70E083
:1007F00060E0893311F460E570E00C94E003882335
:1008000021F00E94AE0B0C94EE0B0895882321F08A
:100810000E94B40B0C94EE0B0895BF92CF92DF921E
:10082000EF92FF920F931F93CF93DF936C01D62F1C
:10083000C72FFC011281F580F2949FE0F9220E94FB
:10084000A40BE82E8823B9F0E12E1123A1F08C2F00
:10085000807F803421F080E28D0F8830D0F080914D
:100860003A0282FD16C082E00E943F0C0E94A40B57
:1008700091E0E82EE926BC2EB2948FE0B822FBE08E
:10088000FB1508F468C0EB2DF0E0E957F04E0C942E
:100890001C1FE12CF0CF0C2F0F70C07F11F00295C0
:1008A000007F112399F0002359F080E28D0F8830EA
:1008B00010F0D11107C0802F0E94AE0B0E94EE0BEA
:1008C0008D2F41C0802F0E94BE0BF8CF8D2F0E942C
:1008D0008A03002309F43FC080E28D0F883010F0B6
:1008E000D11104C0802F0E94B40B03C0802F0E943E
:1008F000C40B0E94EE0B2FC00C2F0F70C07FC032B4
:1009000011F00295007FDD2381F0D13009F469C038
:10091000112309F473C0FF2009F469C0F601858131
:1009200080FFCECF8F70858362C080913A0282FFB4
:1009300038C0112359F0002329F0802F0E94AE0BFC
:100940000E94EE0B80E00E94F80205C080E00E9449
:100950008A030111C7CFEB2DE850FF0B349720F429
:100960000E94AA160E94AD02EE2009F472C10E94F4
:10097000A00B80FD6EC1F60112820E949A0B0E94AC
:100980005507C6010E944A060E949A0BDF91CF913B
:100990001F910F91FF90EF90DF90CF90BF900C943C
:1009A0007607112389F0F11006C00E94D10B802B2D
:1009B0000E94FF03D0CF21E0F212F7CF0E94D10BAB
:1009C000802B0E94D70BC7CFF11006C00E94E40B0A
:1009D000802F0E940604BFCF31E0F31609F4BBCF8D
:1009E000F5CF112331F085E08F1508F4B4CF802FB7
:1009F000DFCF94E09F1508F4AECFEACFFF2041F39C
:100A0000D93349F4FFEF27EE33E0F1502040304076
:100A1000E1F700C000008D2F0E948A039CCF8C2F2D
:100A200086958695837069F0813009F094CF8D2F7B
:100A30009C2F9370111102C090E080E00E94E51697
:100A40008ACF8D2F9C2F9370111102C090E080E00F
:100A50000E94CF1680CF8D2F112329F00E942712DC
:100A60000E94FA1278CF0E948112FACF8C2F8370E5
:100A700009F041C011116FCF4D2F42954695477037
:100A8000440F440F0D2F0F7010E030E020E0042ED3
:100A900004C0000F111F221F331F0A94D2F760E019
:100AA00070E0CB01D4FF0FC06FE070E080E090E019
:100AB00004C0660F771F881F991F4A95D2F760956B
:100AC000709580959095C695C695C370602B712BD7
:100AD000822B932BC23049F058F4C13019F00E9498
:100AE000070739CF0E94F50636CF0E94190733CF8A
:100AF0000E94F30630CF8695112311F08C2F817060
:100B0000882309F428CF4D2F429546954770440F0E
:100B1000440F0D2F0F7010E030E020E0042E04C0D1
:100B2000000F111F221F331F0A94D2F760E070E0FC
:100B3000CB01D4FF0FC06FE070E080E090E004C014
:100B4000660F771F881F991F4A95D2F76095709599
:100B500080959095C695C695C370602B712B822B9E
:100B6000932BC23049F058F4C13019F00E94CC07E1
:100B7000F2CE0E94BA07EFCE0E94DE07ECCE0E94B2
:100B80002F07E9CECF70112329F08C2F0E94550733
:100B90008D2F0ECF8D2F0E9406048C2F0E9476077A
:100BA000DACED23F51F160F4D03FB9F0D13F81F0BD
:100BB000112309F449C0F11083CE8C2F8F7121C00D
:100BC000D33F11F1D43FA1F780913A0282FF26C0B2
:100BD0008C2F8F71112311F314C0112349F084E07D
:100BE0008F1508F4B8CE8C2F8F710E949907B3CE61
:100BF00095E09F1508F4AFCEF6CF8C2F8F711111B1
:100C0000CDCF0E945507A7CE112329F08C2F8F71CD
:100C10000E944007A0CE0E943B079DCE112349F0C1
:100C2000CF718C2F0E94550763E08C2F0E94240CFB
:100C300092CE81E00E943F0CE1E0EF1508F08BCEF0
:100C400082E00E943F0C87CEF110DACE8C2F8F719C
:100C5000A5CFDF91CF911F910F91FF90EF90DF9083
:100C6000CF90BF9008950F931F93CF93DF93EC0124
:100C7000688179818A810E9494088C010E94F00722
:100C80000E94F206B801CE01DF91CF911F910F9122
:100C90000C940D04CF93DF93EC018B819C81892B05
:100CA00029F08881998189238F3F59F4DF91CF9171
:100CB0000895CE010E943306CE01DF91CF910C94AE
:100CC0002402CE010E944B028111F3CF0E94A40B9B
:100CD000882361F38A81882349F380913A0282FD57
:100CE000E5CF82E0DF91CF910C943F0C882321F077
:100CF0000E94BE0B0C94EE0B0895882321F00E94F5
:100D0000C40B0C94EE0B089590E080E00E94CF1687
:100D100090E080E00E94E5160E94CB0B0E94CE0B73
:100D20000E94EE0B0E9421140C94FA120E94940B64
:100D30000C9484060E94BB0B0C949606E92FE29556
:100D4000EF70E250EE3070F4F0E0ED56F04E0C949F
:100D50001C1F803F19F020F4883E20F481E00895A4
:100D6000843FE1F380E00895883EC0F3813FD1F7EE
:100D7000F5CF93FB882780F90895FC01808191814C
:100D80000E948A080C949E06CF93DF9300D000D077
:100D90000F92CDB7DEB70F900F900F900F900F907E
:100DA000DF91CF910895CF93DF9300D000D000D092
:100DB000CDB7DEB726960FB6F894DEBF0FBECDBF17
:100DC000DF91CF91089508950C94E3060E94E40604
:100DD0006093B1017093B2018093B3019093B40119
:100DE0000C94840608950C94E6060F931F930091CB
:100DF000B1011091B2012091B3013091B401602B87
:100E0000712B822B932B1F910F910C94E6060F935D
:100E10001F930091B1011091B2012091B301309163
:100E2000B40160237123822393231F910F910C94AB
:100E3000E6060F931F930091B1011091B20120912A
:100E4000B3013091B40160277127822793271F9146
:100E50000F910C94E6060C94E3060C942B070E9469
:100E60002D076093AD017093AE018093AF01909315
:100E7000B0010C94840660E070E0CB010C942F0765
:100E80000F931F9341E050E060E070E08A019B0106
:100E900004C0000F111F221F331F8A95D2F7C9010A
:100EA000B8011F910F910C942F070F931F9341E0EE
:100EB00050E060E070E004C0440F551F661F771FCC
:100EC0008A95D2F78091AD019091AE01A091AF01CA
:100ED000B091B0018A019B01082B192B2A2B3B2BC7
:100EE000C901B8011F910F910C942F070F931F9305
:100EF00041E050E060E070E004C0440F551F661F01
:100F0000771F8A95D2F7CB01BA01609570958095CD
:100F100090950091AD011091AE012091AF013091FB
:100F2000B00160237123822393231F910F910C94AE
:100F30002F070F931F9341E050E060E070E004C082
:100F4000440F551F661F771F8A95D2F78091AD0118
:100F50009091AE01A091AF01B091B0018A019B01C7
:100F6000082719272A273B27C901B8011F910F918C
:100F70000C942F070F931F930091AD011091AE01B8
:100F80002091AF013091B001602B712B822B932BFC
:100F90001F910F910C942F070F931F930091AD0198
:100FA0001091AE012091AF013091B0016023712307
:100FB000822393231F910F910C942F070F931F935C
:100FC0000091AD011091AE012091AF013091B001BF
:100FD00060277127822793271F910F910C942F0769
:100FE0000895E92FEE0FEE0F9E0F890F982F97703F
:100FF00041E001C0440F9A95EAF78695869586955B
:1010000095E0899FF0011124E756FE4F30E020E083
:1010100070E05191DF011197CB01022E02C096952D
:1010200087950A94E2F78170819585278423852727
:101030008C932F5F3F4F2530310559F70895E92FE5
:10104000EE0FEE0F9E0F890F982F9770869586955D
:10105000869525E0829FF0011124E756FE4F50E06F
:1010600040E080E0219130E0092E02C036952795BE
:101070000A94E2F721703327042E01C0220F0A944C
:10108000EAF7822B4F5F5F4F4530510559F70895BE
:10109000BF92CF92DF92EF92FF920F931F93CF9365
:1010A000DF938C01C090AD01D090AE01E090AF0114
:1010B000F090B0018091B1019091B201A091B30183
:1010C000B091B401C82AD92AEA2AFB2ACFE1D0E09C
:1010D000BC2ED701C6010C2E04C0B695A7959795D6
:1010E00087950A94D2F780FD0EC0219788F7B12C1E
:1010F0008B2DDF91CF911F910F91FF90EF90DF909B
:10110000CF90BF900895B8018C2F0E94300F0197A7
:1011100061F3EECFCF93DF93EC010E944808BE014C
:10112000DF91CF910C94300F1F93CF93DF93EB019E
:1011300090919801992331F0CB01DF91CF911F91CC
:101140000C948A08882379F0CB010E944808182F54
:10115000682FCE010E94F107BE01812FDF91CF9150
:101160001F910C94300FCB010E941F08182FF4CF51
:101170001F93CF93DF93C091B50116E08091B60124
:101180008C1304C0DF91CF911F910895D0E01C9F74
:10119000F0011D9FF00D1124E954FE4F4081518153
:1011A00062817381848195810E94D3062196C770E4
:1011B000E5CF4091E7015091E8016091E90170911C
:1011C000EA018091EB019091EC010C94D306FF921F
:1011D0000F931F93CF93DF938091EC01807FD1F425
:1011E0008091E9018823B1F08091B5011091B60199
:1011F0006091E7017091E801A091EA01B091EB01E3
:10120000062F0723C0910001D091010196E0F92E2D
:10121000181306C0DF91CF911F910F91FF90089591
:1012200090E0109711F00F3F19F401968770F0CFFE
:10123000F89E9001F99E300D1124F901E954FE4FFA
:1012400041814713F2CF40814613EFCF42814111D4
:10125000ECCF438154814A1B5B0B4C175D0728F789
:101260008091EC018F7080618093EC01F901E4546E
:10127000FE4F80818F708061808387EE91E00E94B5
:101280004A06DF91CF911F910F91FF900C94B808FF
:10129000AF92BF92CF92DF92EF92FF920F931F9384
:1012A000CF93DF93CDB7DEB761970FB6F894DEBF6B
:1012B0000FBECDBF8C0185E0F801DE011D960190C7
:1012C0000D928A95E1F7F801E28087EEC82E81E061
:1012D000D82E6091EA017091EB016115710509F456
:1012E0005FC19091E7012091E801892F82238F3F10
:1012F00009F456C140815181A380B480F090E90186
:10130000F501E61BF70BBF01E0910001F09101012F
:10131000FF2009F4F6C08091EC01382F307F6E1762
:101320007F0708F0AFC0311179C0FE2C251323C010
:10133000941321C0E1101FC08F7080618093EC0175
:101340000E94D908C6010E944A068091EC01F8016A
:1013500085838F2D61960FB6F894DEBF0FBECDBF8B
:10136000DF91CF911F910F91FF90EF90DF90CF9081
:10137000BF90AF900895AB2829F0842F85238F3F2D
:1013800009F027C180E0F82FF170DF2E80FF3CC00C
:101390008091B5012091B60136E0821315C04D87CA
:1013A0005E878D859E850E948A08292F22952F7041
:1013B0002230F0F0243018F59F70F1F0F80195819B
:1013C000907FD1F4D12C1EC090E0389FF001399F5E
:1013D000F00D1124E954FE4F6181651306C0608150
:1013E000641303C062816E110FC001968770D5CF60
:1013F0009F7011F0882331F3805E883018F3C801A4
:101400000E944A06FD2CA5CFEE2009F4A2CF8091C0
:10141000EC0181608093EC01F12C9BCF251306C079
:10142000941304C0F801EE2009F487C0C8010E949B
:10143000BD06882319F1EE2009F18091EC0180327C
:1014400070F02091E7013091E80138872F831986E9
:10145000BB86AA868C87CE0107960E944A0686E044
:10146000F801A7EEB1E001900D928A95E1F70E9494
:10147000E7080E94D908FF24F3946BCFC8010E94AB
:101480004A06F9CF311113C07A2DB98AA88A6E2D78
:1014900089890E94C40687EE91E00E944A0686E090
:1014A000F60111928A95E9F70E94D908B5CF251364
:1014B0000FC094130DC0E1100BC0F8018583C80163
:1014C0000E944A0686E0F60111928A95E9F741CF1B
:1014D000C8010E94BD06882389F2EE2079F280912E
:1014E000EC01803208F4BBCF2091E7013091E80194
:1014F0003A8329831B82BD82AC828E83CE01019602
:10150000ACCF6E177F0708F03EC0FE2CEE2009F42A
:10151000B5CF25132AC0941328C08091EC0180FD1B
:101520001BC0982F907FC1F0F8018583903F31F068
:10153000982F907F905F8F70892B8583C8010E94C0
:101540004A0686E0F801A7EEB1E001900D928A9577
:10155000E1F70E94D908FDCE86E0F801A7EEB1E0E0
:1015600001900D928A95E1F7F4CEC8010E94BD0664
:10157000811175CF8091EC0181608093EC01C801ED
:101580000E944A06E6CE7A2DB98AA88A6E2D8989EC
:101590000E94C40686E0F60111928A95E9F7D9CF38
:1015A000EE2009F46BCFC8010E94BD06F82E8823F7
:1015B00009F464CF86E0F801A7EEB1E001900D9246
:1015C0008A95E1F787EE91E00E94F3020E94E70816
:1015D000C0CF81E08E25D7CE1F93CF93DF93CDB7B9
:1015E000DEB72C970FB6F894DEBF0FBECDBF4F838A
:1015F000588769877A878B879C87CE0107960E94D8
:101600004809882369F08A859B85892B39F04F81A9
:101610005885842F85238F3F09F071C016E05FC085
:1016200086E0FE013796DE01119601900D928A95B3
:10163000E1F78A859B85892B89F38F81988589239A
:101640008F3F61F32091B60130E0C90101968770A8
:1016500099274091B5014817190671F40E949A061E
:101660001092B6011092B50186E0E7EEF1E0DF01DD
:101670001D928A95E9F7D2CF96E0929FD001939F71
:10168000B00D1124A954BE4FFE01319601900D9268
:101690009A95E1F78093B6010E94B808BFCF819F69
:1016A000C001112489549E4F0E9448098823E9F003
:1016B000E091B5011E9FF0011124E954FE4F4081D5
:1016C000518162817381848195810E94D3068091CA
:1016D000B50190E00196877099278093B5018091BC
:1016E000B5019091B6018913DACF2C960FB6F89414
:1016F000DEBF0FBECDBFDF91CF911F9108956985E9
:101700007A858B859C850E94D30688CF682F80912F
:101710000201909103010C944317682F80910201FC
:10172000909103010C94451780910201909103015F
:101730000C9447178091ED018595859585950895C1
:101740008091ED01877008959091ED01977081E08F
:1017500009F480E008958091F90108959091F901CC
:10176000892B8093F901089580959091F901982330
:101770009093F90108951092F90108959091F8015C
:10178000892B8093F801089580959091F801982312
:101790009093F80108951092F80108951092F701BE
:1017A00008958091EE01089508950C94D40B9091C2
:1017B0003A0292FD08C09091EE01981721F08093B3
:1017C000EE010C94D50B08958091EE01882329F049
:1017D0001092EE0180E00C94D50B0895E091020187
:1017E000F09103018091F9018083E0910201F09171
:1017F000030180819091F801892B8083E09102019F
:10180000F091030180819091F701892B8083909161
:10181000EE01992381F0E0910201F09103018081B2
:10182000892B808380910201909103010E94FB1615
:1018300081110E94E40B80910201909103010C94AC
:10184000B61608950C94210C90913A0292FD10C0A6
:1018500098E0899F90011124622B6093ED010E9412
:1018600055078091ED018595859585950C94220C01
:101870000C9455071092ED0180E00C94220C90918D
:10188000ED01809589238093ED01282F277091F435
:10189000282F082E000C330B9217130659F0909145
:1018A0003A0292FD07C08595859585950E94760739
:1018B0000C943A0C089590913A0292FB222720F959
:1018C000281769F080FB92F990933A0280913902CF
:1018D00090913A020E94A60C82E00C943F0C08956D
:1018E00080913A0282FB882780F991E089270C9445
:1018F0005B0C81E00C945B0C80E00C945B0C6FEF54
:101900007FEF90E080E00C946F1F90E080E00E94F9
:101910004B1F21E0893E9E4F09F020E0822F089561
:1019200082E090E00C94431F83E090E00C94431F0E
:10193000CF9384E090E00E94431FC82F82E290E0A2
:101940000E94431F982F8C2FCF910895CF93C92FBA
:10195000682F84E090E00E94511F6C2F82E290E09B
:10196000CF910C94511FAB01BC018FE090E00C941F
:10197000631FAB01BC0183E190E00C94631F60E046
:1019800070E0CB010C94B90C60E070E0CB010E94D8
:10199000B30C0C94BF0C69EE7EEF90E080E00E94E7
:1019A0006F1F60E082E090E00E94511F60E083E0E2
:1019B00090E00E94511F1092B1011092B20110925A
:1019C000B3011092B40160E084E090E00E94511FE6
:1019D00060E082E290E00E94511F60E085E090E0CC
:1019E0000E94511F60E086E090E00E94511F6FEF5F
:1019F00087E090E00E94511F40E050E0BA0188E08B
:101A000090E00E94631F60E08DE090E00E94511F13
:101A100040E050E0BA0188E190E00E94631F60E07E
:101A200087E190E00E94511F40E050E0BA018CE154
:101A300090E00E94631F70E060E080E290E00E940E
:101A40006F1F40E050E0BA0188E190E00E94631F00
:101A50000C94C40C0C94CB0C682F8EE090E00C948A
:101A6000511F0E94EA176093080270930902809345
:101A70000A0290930B026093040270930502809314
:101A800006029093070208950E94EA1760930802E5
:101A90007093090280930A0290930B0260930002F4
:101AA000709301028093020290930302089585B718
:101AB000806885BF85B7806885BF089508950895BB
:101AC0000C945E0D08950C94620D0E94570D8EE0EB
:101AD00090E10E94A0160E945F0D0C94600D81E0C1
:101AE00008950C946F0D089508950E94730D0C9441
:101AF000740D0E94D5170E94F8100E945B150C947B
:101B0000630DAF92BF92CF92DF92EF92FF920F934D
:101B10001F93CF93DF93CDB7DEB72A970FB6F89414
:101B2000DEBF0FBECDBF0E940D1181110E94310D8D
:101B30008BEFA82E81E0B82E10E000E0C02E802FA1
:101B40000E945210E82EF501F1905F01F81609F499
:101B500053C080910C0281FD0E9458108F2D8E255C
:101B6000D12CFF24F394982F9F2109F440C00E94A8
:101B7000710D882399F0DE82CF82EF2081E009F495
:101B800080E088870E94DE178160782F9A87898796
:101B90004E815F8168858A850E94B502F801E55013
:101BA000FE4F8081F826F0820E946E1581110E94FE
:101BB000440D0E9415130E94AA169091FA018917EC
:101BC00091F10E94AA168093FA012A960FB6F89412
:101BD000DEBF0FBECDBFDF91CF911F910F91FF9060
:101BE000EF90DF90CF90BF90AF900C94AD02D39464
:101BF000FF0CF5E0DF12B7CF0F5F1F4F0530110567
:101C000009F09CCF8FEF89838A831B820E94DE17A5
:101C10008160782F9D838C8349815A816B818D816E
:101C20000E94B502C1CF2A960FB6F894DEBF0FBE50
:101C3000CDBFDF91CF911F910F91FF90EF90DF907B
:101C4000CF90BF90AF900895CF93DF930E94340F51
:101C5000EC01811521E5920708F042C0811530E5BD
:101C6000930708F09DC0883E910530F5803E9105B0
:101C700008F092C0883A910588F4853A910508F0F9
:101C800084C08130910509F487C0009709F484C0AD
:101C9000049708F081C0D0E0C0E07EC08F3B910582
:101CA000D0F7C85AD0E0CC0FDD1FC65BDE4F0990DD
:101CB000D881C02DD46470C08115904250F4C115F4
:101CC00081E0D80708F068C0CD3ED10520F3D0658B
:101CD00063C0C11590E4D907F0F2DF70D06A5CC030
:101CE000811525E5920700F5811534E5930708F085
:101CF0008BC0811543E5940708F073C0C11582E5D8
:101D0000D80708F469C0CE018370992721E030E03C
:101D100002C0220F331F8A95E2F7C695C69580E26E
:101D2000C89FE001112454C0C11599E5D907A8F452
:101D3000C11528E5D20708F06CC0C11536E5D307F8
:101D400008F0A9CF8C2F0E94CB0FC82FD0E0DC2F3A
:101D5000CC27CC27DF71D0621FC0C1154AE5D4075C
:101D600008F45CC0CE0190568115904208F093CFE4
:101D70008D2F8F710E94CB0F90E0982F8827882796
:101D80009F719C012C2BE901E6CFC55AD0E0C858C1
:101D9000DE4FC881D0E0D064CE01DF91CF910895AD
:101DA000E4E096958795EA95E1F783702C2F2695C8
:101DB0002695237040E2249F90011124382B8C2F0C
:101DC0008370C1E0D0E002C0CC0FDD1F8A95E2F73E
:101DD000C22BD32BDC68E0CFDC2FCC27C16FD06ABD
:101DE000DBCF8370992721E030E002C0220F331F40
:101DF0008A95E2F7C695C69590E2C99FE001112445
:101E0000C22BD32BDA68C8CFD82FCC27C46FD06AA7
:101E1000C3CFDC2FCC27C06FD06ABECF8C2F8F7082
:101E20000E94CB0F34E0D695C7953A95E1F7CF7075
:101E30009C2FEC01D069B0CF972F70E025E0929FE6
:101E4000600D711D1124FB0199E1899FE00DF11DC9
:101E50001124EE0FFF1FE455FF4F859194910895D3
:101E60000E941C0F0C94240E82389105B1F1B0F43D
:101E70008133910509F475C048F48932910509F45C
:101E800069C08A32910509F473C0089585339105BC
:101E900009F459C08933910501F10895833E9105F4
:101EA000A9F138F4803E9105F9F0823E910549F19F
:101EB0000895863E9105A9F1873E9105C9F1843EBA
:101EC000910519F520913A0221FF1FC08091390236
:101ED00084FD14C087EE90E00895209139022370AC
:101EE000A1F080EE90E008952091390220FD47C0D6
:101EF00030913A0230FF09C024FF44C090E080E0F6
:101F000004C02091390222FDF7CF089520913902B3
:101F100022FD3BC030913A0230FDE3CF24FFF5CFE4
:101F2000EDCF2091390223FFF0CF24FDE7CFD2CFB0
:101F30002091390223FD2CC030913A0231FFEECFBF
:101F400084EE90E008952091390225FFDECF89E2EA
:101F500090E008952091390225FFD7CF85E390E0E6
:101F600008952091390226FFD0CF8AE290E00895AB
:101F70002091390226FFC9CF81E390E0089589E3DB
:101F800090E0089583EE90E0089582EE90E0089549
:101F900086EE90E008959091390292FF06C0282FB6
:101FA00028712830F9F4877F846093FF06C0282FBA
:101FB00028712831F1F4877E846120913A0220FF54
:101FC00006C0382F38713830D9F4877F816021FFFF
:101FD00006C0282F28712831D1F4877E816194FDB5
:101FE000877E0895282F24712430F9F68B7F88602E
:101FF000DCCF282F2471243101F78B7E8861DDCF5F
:10200000382F3171313019F78E7F8860E0CF282F5B
:102010002171213121F78E7E8861E1CF80E0089522
:102020000C947F0C0E940D118FE39CE90197F1F74E
:1020300000C000000E940D1180E00E94521080FF3D
:1020400004C00E9410100C94291808950C941210CA
:102050000E94850C811102C00E942A0D0E94900CE2
:1020600080930C020E94980C90933A02809339025C
:102070000E9426100E94940C682F70E090E080E08F
:102080000E94F3066091AD017091AE018091AF01A5
:102090009091B0010C942D0708950C944C10089564
:1020A0000C944F10E82FF0E0E05CFD4F8081089524
:1020B000089580EA8A95F1F7089500C008950C9478
:1020C0005910F894E82FE295EF70F0E031A1282F35
:1020D0002F7081E090E001C0880F2A95EAF7982FD1
:1020E0009095932391A392A1892B82A3789408952C
:1020F000CF93DF93C0E8D1E089918F3F11F00E9428
:10210000611081E0C538D807B9F7CBE7D1E08991F4
:102110008F3F11F00E94611081E0C038D807B9F7F5
:10212000DF91CF910895CF92DF92EF92FF920F93BC
:102130001F93CF93DF93EC01D62E062F10E0C8013A
:1021400080589E4F7C01FC0180818F3F09F445C07F
:10215000F894E82FE295EF70F0E091A18F7021E004
:1021600030E001C0220F8A95EAF7892F822B81A3E4
:1021700082A12095282322A378940E945D10EBE78A
:10218000F1E040E851E031E0C12C21912F3F71F1A5
:10219000A22FA295AF70B0E090968C9190E02F7036
:1021A00002C0959587952A95E2F780FD1FC0832F81
:1021B000C82A330F4E175F0741F7F70180818F3F21
:1021C00011F00E94611061E0C11001C060E08D2D2E
:1021D0000E945F10C00FD11FC882DF91CF911F9165
:1021E0000F91FF90EF90DF90CF90089580E0E0CFC7
:1021F0000E94781085E0E0E4F2E0DF01982F1D9264
:102200009A95E9F7EBE3F2E0DF011D928A95E9F791
:1022100085E00E9454110C942F02FF920F931F939C
:10222000CF93DF9300D000D00F92CDB7DEB78E01F1
:102230000F5F1F4F85E0F80111928A95E9F7F12CA5
:102240006F2DC8010E949310F394F5E0FF12F8CFB0
:1022500045E050E0B8018BE392E00E94361FFF2476
:10226000F394009709F4F12C892B41F085E0F801F3
:10227000ABE3B2E001900D928A95E1F72F2D45E096
:1022800060E472E08BE392E00E9455110E943502F7
:102290008F2D0F900F900F900F900F90DF91CF9197
:1022A0001F910F91FF9008950895FF920F931F9330
:1022B000CF93DF93F82E092F162FD72FC42F222369
:1022C00049F081E080930F020E94DE1790930E0286
:1022D00080930D0280910F028823A1F080910D025E
:1022E00090910E020E94F617059760F0EF2DF02FE7
:1022F000A12FBD2FCE0FDF2FD11DEC17FD0741F40D
:1023000010920F02DF91CF911F910F91FF900895CE
:1023100081918D93F2CF0E94DC190E94790D0C946B
:10232000E8190E94EC190E94810D0C94061A0E9473
:1023300068170E94C3190E94650D0E948B110E94AC
:1023400091110E94750DFBCF8091160280FF12C083
:102350006091090185E0689FB0011124759567952A
:102360007595679560387105A8F561157105A1F13E
:10237000862F089581FF09C06091090185E0689F5B
:10238000B001112475956795EDCF6091090182FD2B
:102390000AC0809115028823D1F0909108016091C4
:1023A0000901891728F085E0689FB0011124DACF70
:1023B000869FB001112485E0869F9001879F300D94
:1023C0001124692F70E0C9010E94081FCBCF65E07E
:1023D00070E0CECF8FE7089581E0089580911602D6
:1023E00080FF0CC06091050170E07595679575954B
:1023F00067956115710549F1862F089581FF06C023
:102400006091050170E075956795F3CF60910501C6
:1024100082FD0BC0909114029923A1F060910401F8
:1024200080910501961738F0682F70E060387105CB
:1024300000F38FE70895899FC001112470E00E9486
:10244000081FF4CF61E070E0D7CF81E008958D3EA2
:1024500031F40E94A411819580931A0208958E3E52
:1024600019F40E94A411F8CF8F3E31F40E94A411F8
:102470008195809319020895803F19F40E94A41158
:10248000F8CF893F29F40E94EE1180931B02089532
:102490008A3F21F40E94EE118195F7CF8B3F31F4F2
:1024A0000E94EE11819580931C0208958C3F19F4CF
:1024B0000E94EE11F8CF9FE0980F983070F4815F82
:1024C000990B21E030E001C0220F8A95EAF7809154
:1024D0001802822B8093180208958D3F31F4809169
:1024E000160281608093160208958E3F21F4809138
:1024F00016028260F7CF8F3FB9F780911602846091
:10250000F1CF409119028D3E59F480911A0287FF54
:102510000DC010921A0241110BC01092150208C092
:102520008E3E81F480911A0218169CF3442381F0A8
:1025300080911B0290911C02892B09F05AC01092C5
:10254000140208958F3E49F447FFF0CF109219020C
:1025500080911A028111ECCFE0CF803F19F414165C
:10256000ACF3E4CF90911B02893F29F41916F4F6DD
:1025700010921B02DBCF8A3F19F497FFD7CFF8CF19
:1025800090911C028B3F29F497FFD0CF10921C0230
:10259000CDCF8C3F19F41916CCF3C8CF9FE0980F1C
:1025A000983090F4815F990B21E030E0B90102C0CE
:1025B000660F771F8A95E2F7CB01809590911802FC
:1025C000892380931802B2CF8D3F31F48091160297
:1025D0008E7F80931602AACF8E3F21F4809116023F
:1025E0008D7FF7CF8F3F09F0A1CF809116028B7FAF
:1025F000F0CF08950E94DE179C01909119028091FE
:102600001A02982B21F0309313022093120290911A
:102610001B0280911C02982B21F030931102209311
:10262000100287E192E00C94C116EF92FF920F9393
:102630001F93CF93DF9300D000D000D0CDB7DEB78B
:1026400086E0E7E1F2E0DE01119601900D928A95B5
:10265000E1F7E0901902F0901A0200911B0210912C
:102660001C021092190210921A0210921B02109270
:102670001C028E2D8F2991F08091120290911302ED
:102680000E94F617AC0190911502992309F43FC0FE
:1026900080910A018417150608F447C0802F812B0A
:1026A00091F080911002909111020E94F617AC01F6
:1026B00090911402992309F477C080910601841740
:1026C000150608F47FC08091190290911A02892B97
:1026D00090911B02892B90911C02892B11F00E9472
:1026E000FA1286E0FE013196A7E1B2E001900D9268
:1026F0008A95E1F726960FB6F894DEBF0FBECDBFE0
:10270000DF91CF911F910F91FF90EF90089520914D
:102710000B018AE0289F900111242417350708F047
:10272000BDCF9F5F9093150202C09F3FD1F7EE206F
:1027300059F00E94A4119FEF1E140CF491E0899FA0
:10274000802D112480931902FF2059F00E94A411BA
:102750009FEF1F140CF491E0899F802D112480932A
:102760001A0230911902332309F498CF20911A02EA
:10277000222309F493CF45EB3403C001112499239C
:1027800059F09093190245EB24039001112433234F
:1027900039F030931A0282CF81E080931902F3CF8F
:1027A00081E080931A027ACF209107018AE0289F66
:1027B000900111242417350708F085CF9F5F90936F
:1027C000140202C09F3FD1F7002359F00E94EE117E
:1027D0009FEF10160CF491E0899F802D11248093B7
:1027E0001B02112359F00E94EE119FEF11160CF4F9
:1027F00091E0899F802D112480931C0230911B024F
:10280000332309F460CF20911C02222309F45BCF0B
:1028100045EB3403C0011124992359F090931B0216
:1028200045EB240390011124332339F030931C022B
:102830004ACF81E080931B02F3CF81E080931C029A
:1028400042CF86E0E7E1F2E0DF011D928A95E9F7E9
:102850001092150210921402109216020895CF934E
:10286000DF93EC01FB018281882309F420C1C4308D
:10287000FDE5DF07C8F5CB3F9CE5D90730F49E01A5
:1028800022503C452431310598F50E94980C9093D4
:102890003A0280933902C031FCE5DF0709F4E0C059
:1028A00008F061C0C8309CE5D90709F4CBC088F5B1
:1028B000C430FCE5DF0709F4B3C0E8F4C2309CE59E
:1028C000D90709F4A7C0809139028260C330DC4582
:1028D00009F4A3C08091390290913A020E94A60C9B
:1028E0000E949A0680E004C0C236EDE5DE0769F278
:1028F000DF91CF910895809139028061C630FCE567
:10290000DF0709F48AC008F48FC080913902806221
:1029100084C0809139028D7FCC309CE5D90709F4C1
:102920007CC070F4809139028C60CA30FCE5DF070E
:1029300009F473C008F48AC0809139028E7F6DC09B
:1029400080913902877FCE309CE5D90709F465C0B4
:10295000809139028B7FCF30DC4508F45EC08091D6
:1029600039028F7E5AC0CD3FFCE5DF0709F474C001
:1029700040F5C4319CE5D90709F48AC058F4C23146
:10298000FCE5DF0709F474C008F46EC080913902D9
:10299000837F43C0CB3F9CE5D90709F449C008F0C9
:1029A0004DC0C531DC4509F095CF8091390282FBDD
:1029B000992790F921E0922790FB82F990FB83F907
:1029C0002CC0C1308DE5D80709F458C088F4809137
:1029D0003A028360CF3FECE5DE0769F180913A026D
:1029E0008D7FC115DD4538F180913A028C7F23C07F
:1029F000C3308DE5D80709F458C008F452C0C23678
:102A0000DD4509F067CF90913902892F8F7E94FFC1
:102A1000806103C0809139028160809339025ACF6E
:102A2000809139028460F9CF809139028860F5CFB6
:102A300080913A02816080933A024CCF80913A02B1
:102A40008260F9CF809139028064E7CF0E949A06B4
:102A5000809139028068E1CF80913A028E7FEBCF7E
:102A6000809139028F7DD9CF809139028F7BD5CF6C
:102A70000E949A06809139028F77CFCF80913A02D7
:102A8000982F909591708E7F892B90FB81F9D3CFF1
:102A90000E949A0690913902892F97FB87F98058F6
:102AA000BCCF81E00E942C0D15CF80E0FBCF81E0F0
:102AB0001FCF81E0089587988F9A86988E9A8FB15C
:102AC00090E0880F892F881F990B7E9905C020E020
:102AD000822B80931F02089522E0FACFE0911F021B
:102AE000EE0FEE0FE0931F028FB190E0880F892F59
:102AF000881F990B4FB146FB222720F946FF02C0E1
:102B000022E030E0822BE82BE0931F02EF70F0E030
:102B1000EB57FE4F808190911E02890F80931E0219
:102B200020E0823054F080911D028F5F80931D025F
:102B300060E080E00E945B0121E080911E028F3FF7
:102B400054F480911D02815080931D0261E080E069
:102B50000E945B0121E080911E02082E000C990B5F
:102B600062E070E00E94081F80931E02822F089589
:102B7000CF93DF93EB0186319C4511F50E94AB0B9F
:102B80009A81992399F08A7A91E009F490E09093E0
:102B90002002811109C089E20E94860B0E94EE0B7F
:102BA00080E0DF91CF91089585E3F6CF80912002F8
:102BB000811104C089E20E948D0BF0CF85E3FBCF29
:102BC00081E0EFCF0F931F93CF93DF93C42FD22FCA
:102BD000FC0182818823C9F0409323020E94DE1702
:102BE000909322028093210280E28C0F883008F0BB
:102BF00050C0C77081E001C0880FCA95EAF7DF9125
:102C0000CF911F910F910C94FF0310912302141385
:102C100035C080912102909122020E94F617883CD3
:102C2000910560F5C0E2CD0F1D17B9F080E2810F6C
:102C3000883040F4177081E001C0880F1A95EAF7D8
:102C40000E940604C83048F481E09D2F977001C0AF
:102C5000880F9A95EAF70E94FF03802F0E94F703DE
:102C6000C830B8F4D77081E001C0880FDA95EAF770
:102C7000DF91CF911F910F910C94060480E28C0F8D
:102C8000883038F4C77081E001C0880FCA95EAF730
:102C9000EFCFDF91CF911F910F9108950F939C017A
:102CA000CB01243F4CE5340759F1A8F4293DFCE55C
:102CB0003F0701F12A3D4CE53407D1F1283D3C4561
:102CC00091F406E221EE41EE68ED7CE50E94E2150A
:102CD00080E00F910895263FFCE53F07E9F0B0F052
:102CE000273F3C45F9F0FC018281882339F110929D
:102CF0002302EFCF07E225EE45EE69ED7CE5E6CF56
:102D000006E221EE40EE64EF7CE5E0CF07E225EE3F
:102D100044EE65EF7CE5DACF06E221EE42EE66EFA7
:102D20007CE5D4CF07E225EE46EE67EF7CE5CECF1B
:102D300008E221E045EE6AED7CE5C8CF81E0C9CF2D
:102D40009093970180939601089590932902809320
:102D500028020895E0912802F0912902309721F08D
:102D60000190F081E02D099480E00895E09128021F
:102D7000F0912902309721F00280F381E02D09942F
:102D80000895E0912802F0912902309739F022E06D
:102D9000DC012C930480F581E02D099408952091A5
:102DA0002602309127022817390771F090932702E5
:102DB00080932602E0912802F0912902309721F0B9
:102DC0000680F781E02D0994089520912402309126
:102DD00025022817390771F0909325028093240269
:102DE000E0912802F0912902309721F00084F185CA
:102DF000E02D099408959C012E5F3F4FAC01485F80
:102E00005F4F80E02417350709F40895F901919187
:102E10009F019923B9F38F5FF5CF662349F0FC0139
:102E2000329608962191261729F0E817F907D1F76D
:102E300080E0089581E008959C01FC0132969FEFA7
:102E400080E04191461751F09F3F19F4411101C0B4
:102E5000982F8F5F8630A9F79F3F09F40895290FB7
:102E6000311D97FD3A95F90162830895FC01329670
:102E700008962191261303C0DF0111971C92E817D1
:102E8000F907B9F708950C941C170C94361702969D
:102E900026E0FC0111922A95E9F7089508950C9413
:102EA0004E17811105C081E080932A020C944F17C0
:102EB00082E0FACF83E080932A020C944F170C949F
:102EC000511781E080932A020C944F170C946117DC
:102ED000089580914D02843031F10E9437021092A2
:102EE0002B0288E190E020E40FB6F894A895809337
:102EF00060000FBE2093600083B7817F846083BF32
:102F000083B7816083BF7894889583B78E7F83BFB2
:102F10000FB6F894A8958091600088618093600056
:102F2000109260000FBE089508950895CF930E94F7
:102F300094170E940D110E949517C0E08C2F0E94DB
:102F40005210811105C0CF5FC530C1F7CF910895F0
:102F500081E0FCCF0E949A060C949F021F921FB63C
:102F60001F9211248F939F93AF93BF9380912B0255
:102F7000811113C08091450290914602A0914702B1
:102F8000B09148024196A11DB11D809345029093D6
:102F90004602A0934702B0934802BF91AF919F9120
:102FA0008F911F901FBE1F90189582E084BD93E003
:102FB00095BD9AEF97BD80936E0008952FB7F89452
:102FC0008091450290914602A0914702B09148023B
:102FD0002FBF08952FB7F894609145027091460273
:102FE00080914702909148022FBF08959C014FB7EE
:102FF000F8948091450290914602A0914702B091C9
:1030000048024FBF821B930B089578941F921FB6FE
:103010001F9211248F939F93AF93BF93809145028A
:1030200090914602A0914702B09148020196A11DDD
:10303000B11D8093450290934602A0934702B0933E
:103040004802BF91AF919F918F911F901FBE1F901B
:10305000189581E08093E00080E28093D800109280
:10306000C9008FE19EE40197F1F700C0000087E0FE
:1030700090EBDC018093560290935702A093580284
:10308000B093590288E19CE00FB6F894A89580931C
:1030900060000FBE90936000FFCF809137020895CB
:1030A00008959C0182E08093E9009FEF8091E80001
:1030B000915085FD06C085ED8A95F1F700009111CC
:1030C000F5CF8091E80085FF0CC050E040E066E05D
:1030D00070E0C9010E94771A8091E8008E77809392
:1030E000E8000895CF93DF93EC0181E08093E9003D
:1030F0008FEF9091E800815095FD06C095ED9A956F
:10310000F1F700008111F5CF8091E80085FF14C030
:1031100050E040E068E070E0CE010E94771A8091B4
:10312000E8008E778093E80088E0FE01AFE2B2E02D
:1031300001900D928A95E1F7DF91CF9108958093E8
:103140002C0270932E0260932D0280914D028430E8
:1031500001F582E08093E9008FEF9091E8008150C3
:1031600095FD06C095ED9A95F1F700008111F5CF18
:103170008091E80085FF0DC050E040E063E070E022
:103180008CE292E00E94771A8091E8008E7780931B
:10319000E8000895BC0184E00C949F18BC0183E012
:1031A0000C949F1880914C02811109C00E94071C49
:1031B0000E94641C8091E20084608093E200089584
:1031C00010924C0208950C9461176091490281E0BD
:1031D000611101C080E00C945A1790914D0281E07A
:1031E000943009F080E0609149020C945F1742E04E
:1031F00061EC81E00E94831B42E261EC82E00E946C
:10320000831B90914D0281E0943009F080E0609141
:1032100049020C94511780914F02833009F460C029
:1032200030F48130C9F1823009F49CC008958A30AD
:1032300009F488C08B3009F46EC0893009F04FC0A2
:1032400080914E02813209F04AC0809152029091E1
:103250005302029708F043C08091E800877F809373
:10326000E8008091E80082FF36C09091F3008091E1
:10327000F200029731F48091F100813011F0863034
:1032800021F48091F100809337028091E8008B77E0
:103290008093E8000C94B71B80914E02813AF9F4B8
:1032A0008091E800877F8093E8008091520290919E
:1032B0005302892B61F468E08FE292E070E00E9493
:1032C000C61A8091E8008B778093E800089560E04B
:1032D00090E080E0F3CF80914D028111C2CF08953C
:1032E00080914E02813AD9F7809152029091530217
:1032F000892BA9F78091E800877F8093E80080916F
:10330000E80080FFFCCF809118018093F10080914C
:10331000E8008E77BDCF80914E02813201F7809117
:10332000520290915302892BD1F68091E800877F59
:103330008093E8000E94B71B80915002809318018F
:103340000C949A0680914E02813249F68091E800F1
:10335000877F8093E8000E94B71B80915102809381
:103360003802089580914E02813A09F0B8CF8091D9
:10337000E800877F8093E8008091E80080FFFCCF21
:1033800080913802C2CF84B7877F84BF0FB6F8948C
:10339000A895809160008861809360001092600021
:1033A0000FBE80E890E00FB6F89480936100909390
:1033B00061000FBE0C9466170E94071C0E94641CDB
:1033C000E2EEF0E080818460808378940C94ED1EBE
:1033D0008CE091E00C94A51680914D028530A9F403
:1033E00080914D02853011F00C94AA170E94691744
:1033F00080914B028823A1F30E949617882381F3C2
:103400000E94611A0E949A06EBCF089508950C94C9
:10341000091A292F33272330310519F168F4213097
:10342000310509F444C02230310509F445C090E06B
:1034300080E030E020E025C02132310549F1223220
:103440003105A9F780E490E024EE31E061157105C3
:10345000C1F08BE790E029E631E06130710589F039
:10346000E6CF99278130910581F0009729F00297E6
:10347000F1F6EEEDF0E002C0E8E1F1E0849190E0D9
:103480009F01FA01318320830895E4E0F1E0F6CF53
:1034900089E090E02EE231E06115710591F389E059
:1034A00090E027E431E06130710559F3C0CF82E14B
:1034B00090E027E531E0E5CF8BE390E02CE131E0CF
:1034C000E0CF80E189BD82E189BD09B400FEFDCF76
:1034D0008091D8008F7D8093D8008091E000826039
:1034E0008093E0008091E00081FDFCCF0895AF92D1
:1034F000BF92CF92DF92FF920F931F93CF93DF93F0
:103500006C01EB018A010E94D61BF82E811123C0A9
:103510000115110539F0F80180819181C81BD90B83
:10352000C80ED91EB12CA12C2097A9F08091E800DB
:1035300085FD22C08091E8008E778093E800011518
:103540001105A1F0F80180819181A80EB91EB18208
:10355000A08285E0F82E8F2DDF91CF911F910F91E2
:10356000FF90DF90CF90BF90AF9008950E94D61B40
:103570008823D1F2F82EEFCFF60181916F0180936D
:10358000F1002197FFEFAF1ABF0ACECFFC01809167
:1035900054029091550286179707A0F061157105A6
:1035A00029F49091E8009E779093E80090E06115EF
:1035B000710551F4911108C08091E80082FF34C078
:1035C00080E00895BC01F2CF80914D028823C1F1C3
:1035D0008530C1F18091E80083FD30C08091E80022
:1035E00082FDEACF8091E80080FFE1CF8091F30077
:1035F0002091F200382F6115710519F0283031053E
:1036000058F091E02830310509F090E02091E80071
:103610002E772093E800CBCF81918093F100615009
:1036200071092F5F3F4FE7CF80914D02882341F012
:10363000853041F08091E80083FFBECF81E008959E
:1036400082E0089583E00895FC01809154029091F6
:10365000550286179707A0F06115710529F480912E
:10366000E8008E778093E80090E06115710551F4D1
:10367000911108C08091E80082FF35C080E0089574
:10368000BC01F2CF80914D028823C9F18530C9F188
:103690008091E80083FD31C08091E80082FDEACF8F
:1036A0008091E80080FFE1CF8091F3002091F2004B
:1036B000382F6115710519F02830310558F091E067
:1036C0002830310509F090E08091E8008E778093F2
:1036D000E800CBCF84918093F1003196615071095D
:1036E0002F5F3F4FE6CF80914D02882341F0853018
:1036F00041F08091E80083FFBDCF81E0089582E032
:10370000089583E00895982F973028F08F70809364
:10371000E90081E008959093E900242F762F50E08E
:10372000981731F07091EC002091ED005091F0006D
:1037300021FD02C09F5FE8CF3091EB003E7F3093C8
:10374000EB003091ED003D7F3093ED003091EB00C8
:1037500031603093EB007093EC002093ED005093B8
:10376000F0002091EE0027FDE5CF80E008958091E4
:103770004E0287FF13C08091E80082FF06C080914F
:10378000E8008B778093E80004C080914D0281119E
:10379000F2CF089580914D028823D9F38091E800FB
:1037A00080FFF8CF8091E8008E77ECCF2091E40085
:1037B0003091E50095E6A9012091EC00822F8170FF
:1037C00020FF06C08091E80080FF06C080E00895D9
:1037D0002091E80022FD1AC080914D02882389F0D3
:1037E000853089F08091EB0085FD0FC02091E400C9
:1037F0003091E50042175307F9F29150E1F684E069
:10380000089582E0089583E0089581E008950E947C
:10381000751C0E947D1CE0EEF0E080818160808359
:10382000E8EDF0E080818F77808319BCA7EDB0E0F0
:103830008C918E7F8C9380818F7E808310924C023E
:1038400008950F931F93CF93DF930E94751C0E94DE
:103850007D1CC8EDD0E088818F778883888180685F
:10386000888388818F7D888319BC10924D021092C5
:10387000490210924B0210924A0200EE10E0F80149
:1038800080818B7F808388818160888342E060E0D3
:1038900080E00E94831BE1EEF0E080818E7F8083D8
:1038A000E2EEF0E0808181608083808188608083A7
:1038B000F80180818E7F8083888180618883DF9199
:1038C000CF911F910F910895E8EDF0E080818F7EF8
:1038D0008083E7EDF0E080818160808384E082BFB7
:1038E00081E080934C020C94211CE8EDF0E0808193
:1038F0008E7F80831092E20008951092DA00109279
:10390000E10008951F920F920FB60F9211242F938A
:103910003F934F935F936F937F938F939F93AF9357
:10392000BF93EF93FF938091E10082FF0BC08091E2
:10393000E20082FF07C08091E1008B7F8093E1006D
:103940000E94EC1E8091DA0080FF19C08091D8009F
:1039500080FF15C08091DA008E7F8093DA0080911D
:10396000D90080FF96C080E189BD82E189BD09B49C
:1039700000FEFDCF81E080934D020E94D21880911D
:10398000E10080FF19C08091E20080FF15C08091A6
:10399000E2008E7F8093E2008091E200806180935C
:1039A000E2008091D80080628093D80019BC85E045
:1039B00080934D020E94E5188091E10084FF2BC0A6
:1039C0008091E20084FF27C080E189BD82E189BD4A
:1039D00089B5982F917080FFFBCF8091D8008F7DA3
:1039E0008093D8008091E1008F7E8093E1008091E8
:1039F000E2008F7E8093E2008091E20081608093FC
:103A0000E20080914902882309F449C084E0809350
:103A10004D020E94ED188091E10083FF29C0809142
:103A2000E20083FF25C08091E100877F8093E10061
:103A300082E080934D02109249028091E1008E7FD6
:103A40008093E1008091E2008E7F8093E20080917C
:103A5000E20080618093E20042E060E080E00E944A
:103A6000831B8091F00088608093F0000E94E3182F
:103A7000FF91EF91BF91AF919F918F917F916F9146
:103A80005F914F913F912F910F900FBE0F901F901C
:103A9000189519BC10924D020E94E01870CF8091C9
:103AA000E30087FD93E090934D02B3CF1F920F92F6
:103AB0000FB60F9211242F933F934F935F936F9301
:103AC0007F938F939F93AF93BF93CF93DF93EF93A6
:103AD000FF93D091E900DF708091EC00C82FC17096
:103AE00080FDC0E81092E9008091F000877F80930C
:103AF000F00078940E949A1D1092E9008091F000E5
:103B000088608093F000CD2BCF70C093E900FF91C7
:103B1000EF91DF91CF91BF91AF919F918F917F9165
:103B20006F915F914F913F912F910F900FBE0F902A
:103B30001F9018951F93CF93DF93CDB7DEB7AA9749
:103B40000FB6F894DEBF0FBECDBF8EE492E0209199
:103B5000F100FC012193CF01F2E086359F07B9F710
:103B60000E940B198091E80083FF1EC180914E02D4
:103B700090914F029A3008F017C1E92FF0E0EF550D
:103B8000F04E0C941C1F803899F0823809F00CC15B
:103B9000809152028F70873008F006C18093E9004F
:103BA0008091EB0085FB882780F91092E90006C020
:103BB00080914A0290914B02911182609091E800AD
:103BC000977F9093E8008093F1001092F10080912C
:103BD000E8008E77E5C0882309F4D3C0823009F06D
:103BE000E3C0809150028111D6C0809152028F7043
:103BF0002FEF280F263008F0D7C08093E9002091DE
:103C0000EB0020FFC8C0933031F48091EB0080625C
:103C10008093EB00C0C09091EB0090619093EB001B
:103C200021E030E001C0220F8A95EAF72093EA00F4
:103C30001092EA008091EB008860EACF8111B4C055
:103C4000109150021F778091E3008078812B809340
:103C5000E3008091E800877F8093E8000E94B71B13
:103C60008091E80080FFFCCF8091E3008068809322
:103C7000E30082E0111183E080934D0295C08058EB
:103C8000823008F091C080915002909151028C3D99
:103C900023E09207A1F583E08A838AE289834FB704
:103CA000F894DE01139620E03EE051E2E32FF0E0CD
:103CB00050935700E49120FF03C0E295EF703F5FFF
:103CC000EF708E2F90E0EA30C0F0C7968D939D93F1
:103CD0002F5F243159F74FBF8091E800877F809391
:103CE000E8006AE270E0CE0101960E94C61A809157
:103CF000E8008B778093E80057C0C096E7CF6091CB
:103D0000520270915302AE014F5F5F4F0E94071A3B
:103D1000BC01892B09F448C09091E800977F9093EB
:103D2000E80089819A810E94241BE1CF8038E1F567
:103D30008091E800877F8093E8008091490280931A
:103D4000F10045CF811130C090915002923060F562
:103D50008091E800877F8093E800909349020E9459
:103D6000B71B80914902882311F084E005C080913F
:103D7000E30087FDFACF81E080934D020E94F7189F
:103D800013C080915002813079F481E0933009F0C2
:103D900080E080934B021092E9008091E800877FD9
:103DA0008093E8000E94B71B8091E80083FF0AC05F
:103DB0008091E800877F8093E8008091EB0080622B
:103DC0008093EB00AA960FB6F894DEBF0FBECDBF6E
:103DD000DF91CF911F9108950895CF9380914D0267
:103DE0008823A1F0C091E900CF709091EC00892F59
:103DF000817090FD80E8C82B1092E9008091E80066
:103E000083FD0E949A1DCF70C093E900CF91089561
:103E100097FB072E16F4009407D077FD09D00E9477
:103E2000221F07FC05D03EF4909581959F4F089581
:103E3000709561957F4F0895EE0FFF1F0590F491E7
:103E4000E02D0994AA1BBB1B51E107C0AA1FBB1F91
:103E5000A617B70710F0A61BB70B881F991F5A9516
:103E6000A9F780959095BC01CD010895FB01DC0177
:103E700004C08D910190801921F441505040C8F741
:103E8000881B990B0895F999FECF92BD81BDF89AD0
:103E9000992780B50895A8E1B0E042E050E00C9485
:103EA000771F262FF999FECF92BD81BDF89A019711
:103EB00000B4021639F01FBA20BD0FB6F894FA9A72
:103EC000F99A0FBE08950396272F0E94521F0E9451
:103ED000511F252F0E94521F242F0C94521F019610
:103EE000272F0E94521F0C94511FDC01CB01FC01B3
:103EF000F999FECF06C0F2BDE1BDF89A319600B443
:103F00000D9241505040B8F70895F894FFCF4B04FC
:103F10004B047C047C040F052B05AB04AB04360575
:103F2000C205D105D105A906A906B206B206B40696
:103F3000B206B206B206A906A906B906B206B206CC
:103F4000B906C31DEB1DD41EEB1DD41E1E1E3F1E45
:063F5000D41E961EA21E05
:103F5600C800EF012808641E140A321E4D18721894
:103F66005118CE18CA18501801E200E900EA00B547
:103F760000B600B700CD008301CC008A01920194FF
:103F8600012102230224022502260227022A02B365
:103F960000B4006F007000818283E200E900EA004D
:103FA600B500B600B700CD008301CC008A019201AE
:103FB60094012102230224022502260227022A0254
:103FC600B300B4006F007000818283F5F436976603
:103FD60094313534C600FF0100010000FFFF0000E8
:063FE600010001FF0000D4
:00000001FF
